:020000040800F2
:1000000000000220E13200086D0500086F050008BD
:100010007105000873050008750500080000000060
:10002000000000000000000000000000770500084C
:1000300079050008000000007B0500087D05000828
:100040003133000831330008313300083133000800
:1000500031330008313300083133000831330008F0
:1000600031330008313300083133000831330008E0
:1000700031330008313300083133000831330008D0
:1000800031330008313300083133000831330008C0
:1000900031330008313300083133000831330008B0
:1000A00031330008313300083133000831330008A0
:1000B0003133000831330008313300083133000890
:1000C0003133000831330008313300083133000880
:1000D0003133000831330008313300083133000870
:1000E00031330008313300080000000031330008CC
:1000F0003133000831330008313300083133000850
:10010000313300083133000831330008313300083F
:10011000313300083133000831330008313300082F
:10012000313300083133000831330008313300081F
:10013000313300083133000831330008313300080F
:1001400000000000000000000000000000000000AF
:1001500031330008313300083133000831330008EF
:1001600031330008313300083133000831330008DF
:1001700031330008313300083133000831330008CF
:1001800031330008313300083133000831330008BF
:1001900031330008313300083133000831330008AF
:1001A000313300083133000831330008313300089F
:1001B000313300083133000831330008313300088F
:1001C000313300083133000831330008313300087F
:1001D000313300083133000831330008313300086F
:1001E000313300083133000831330008313300085F
:1001F000313300083133000831330008313300084F
:10020000313300083133000831330008313300083E
:10021000313300083133000831330008313300082E
:10022000313300083133000831330008000000008A
:10023000313300083133000800000000313300087A
:1002400031330008313300083133000831330008FE
:1002500031330008313300083133000831330008EE
:1002600031330008313300083133000831330008DE
:10027000313300083133000831330008000000003A
:10028000313300083133000831330008000000002A
:080290000000000031330008FA
:1002980053B94AB9002908BF00281CBF4FF0FF31E5
:1002A8004FF0FF3000F00CB8ADF1080C6DE904CE4A
:1002B80003F068F8DDF804E0DDE9022304B07047D4
:1002C800704700BF10B5054C237833B9044B13B100
:1002D8000448AFF300800123237010BD14000020F0
:1002E800000000002C36000808B5034B1BB1034979
:1002F8000348AFF3008008BD00000000180000208C
:100308002C36000830B589B0002403940494059471
:10031800069407941C4BD3F8E02042F08002C3F8FF
:10032800E020D3F8E02002F080020092009AD3F88F
:10033800E02042F00102C3F8E020D3F8E02002F008
:1003480001020192019AD3F8E02042F01002C3F8AA
:10035800E020D3F8E03003F010030293029B0B4D2A
:1003680022464FF4E051284602F038F94FF4E053A2
:100378000393112304930594069403A9284602F0D5
:100388001DF809B030BD00BF0044025800100258E3
:1003980072B6FEE708B51548154B03604FF41653BF
:1003A800436000238360C36003610C224261836160
:1003B800C36103624362836202F0B4FE70B9002134
:1003C8000A4802F028FF58B90021084802F048FFFF
:1003D80040B9064802F000FF30B908BDFFF7D8FF62
:1003E800FFF7D6FFFFF7D4FFFFF7D2FFC0000020CA
:1003F800004C004008B51548154B03604FF41653E0
:10040800436000238360C36003610C2242618361FF
:10041800C36103624362836202F084FE70B9002103
:100428000A4802F0F8FE58B90021084802F018FFFF
:1004380040B9064802F0D0FE30B908BDFFF7A8FF62
:10044800FFF7A6FFFFF7A4FFFFF7A2FF3000002089
:100458000010014000B59DB04C22002109A802F00F
:1004680064FF2022002101A802F05FFF022002F0B1
:10047800BBF800230093254B9A6942F440429A61E5
:100488009B6903F440430093214BDA6A42F001026E
:10049800DA62DB6A03F001030093009B1B4B9B6944
:1004A80013F4005FFAD0012309934FF480330A93C1
:1004B80002231293139314935022159216931793B1
:1004C80018930C23199300231A931B9309A800F07F
:1004D800B5F9B8B93F23019303230293002303938B
:1004E800082304934023059306934FF480620792F0
:1004F800089304210DEB010000F0D4FD20B91DB0D4
:100508005DF804FBFFF744FFFFF742FF004802587D
:100518000004005800B583B002F0B8F8FFF79AFF5E
:10052800FFF7F0FEFFF736FFFFF764FF0C4B1B7871
:100538008BB1012B11D10DF1070002F0C1FE01288A
:10054800F4D0012211460DF1070002F0AFFE002899
:10055800ECD0FFF71DFFFFF71BFFFFF719FF00BFE8
:1005680000000020FEE7FEE7FEE7FEE7FEE7704733
:100578007047704708B502F0B7F808BD82B0074B5E
:10058800D3F8F42042F00202C3F8F420D3F8F43090
:1005980003F002030193019B02B070470044025824
:1005A80010B5B8B004460021339134913591369195
:1005B8003791BC2204A802F0B8FE2368344A93425B
:1005C80004D0344A934231D038B010BD022304938A
:1005D80004A801F003F830BB2F4BD3F8E82042F40D
:1005E8000022C3F8E820D3F8E82002F400220092A1
:1005F800009AD3F8E02042F00102C3F8E020D3F8D3
:10060800E03003F001030193019B0323339302239A
:1006180034930023359336930823379333A91F481F
:1006280001F0CCFED0E7FFF7B3FED5E70123049332
:1006380004A800F0D3FF38BB174BD3F8F02042F0E2
:100648001002C3F8F020D3F8F02002F01002029252
:10065800029AD3F8E02042F00102C3F8E020D3F870
:10066800E03003F001030393039B4FF4C06333931B
:10067800022334930023359336930723379333A902
:10068800064801F09BFE9FE7FFF782FED4E700BF14
:10069800004C00400010014000440258000002587D
:1006A800274AD2F8883043F47003C2F88830254BC3
:1006B8001B6803F00F03062B06D8224A136823F0A1
:1006C8000F0343F0070313601F4B1A6842F001023F
:1006D8001A6000221A6119681C4A0A401A60194BEC
:1006E8001B6813F0080F06D0164A136823F00F038F
:1006F80043F007031360144B00229A61DA611A620F
:10070800134999621349D962134919635A63996362
:10071800DA6319645A64196821F4802119601A6629
:100728000E4B1A680E4B1340B3F1005F03D20D4B0A
:100738000122C3F808210C4B43F2D2021A60704719
:1007480000ED00E000200052004402587FEDF6EA78
:10075800000202020000FF01800201010010005C9B
:100768000000FFFF0080005100400052002804DB19
:100778000901C9B2044B1954704700F00F00090170
:10078800C9B2024B1954704700E400E014ED00E0D0
:1007980000B500F00700C0F1070CBCF1040F28BF3A
:1007A8004FF0040C031D062B0FD9C31E4FF0FF3E5C
:1007B8000EFA0CF021EA000199400EFA03FE22EA33
:1007C8000E0241EA02005DF804FB0023EEE7000098
:1007D8000649CB6823F4E0631B041B0C000200F4F9
:1007E800E0600343024A1A43CA60704700ED00E024
:1007F8000000FA0510B50446054BD868C0F302207E
:10080800FFF7C6FF01462046FFF7B0FF10BD00BF47
:1008180000ED00E00138B0F1807F0BD24FF0E0230B
:100828005861054AF02182F82310002098610722B8
:100838001A6170470120704700ED00E0002800F0C1
:10084800188338B50446036813F0010F25D0944A7D
:10085800136903F03803926A102B15D0182B0FD0A8
:100868006368B3F5803F3FD0002B53D18C4B1A6897
:1008780022F480321A601A6822F480221A6038E062
:1008880002F00302022AEBD1854B1B6813F4003FE8
:1008980003D06368002B00F0EE82236813F0020F88
:1008A80000F0A1807E4A1369926A13F038035AD087
:1008B800182B55D0E368002B00F0DE8078490A68D1
:1008C80022F0190213430B6001F01AFF0546744B1E
:1008D8001B6813F0040F40F0AD8001F011FF401BBE
:1008E8000228F4D90320CDE26D4A136843F480331B
:1008F800136063682BB301F003FF0546684B1B6860
:1009080013F4003FC9D101F0FBFE401B6428F5D960
:100918000320B7E2B3F5A02F09D0614B1A6822F47F
:1009280080321A601A6822F480221A60E1E75C4B70
:100938001A6842F480221A601A6842F480321A60F7
:10094800D7E701F0DDFE0546554B1B6813F4003F61
:10095800A3D001F0D5FE401B6428F5D9032091E20D
:1009680012F0030FA6D14E4B1B6813F0040F03D0EF
:10097800E368002B00F08182494A136823F01903C9
:10098800E1680B43136001F0BBFE0546444B1B684E
:1009980013F0040F06D101F0B3FE401B0228F5D96D
:1009A80003206FE201F0B2FE41F20303984212D82D
:1009B8002269402A07D03A494B6823F47C3343EA3A
:1009C80002334B600FE0364A536823F47C3343F418
:1009D8000033536007E0324A536823F0FE4321692D
:1009E80043EA01635360236813F0100F00F0888016
:1009F8002B4A136903F03803926A082B56D0182B38
:100A080050D0E369002B00F0B880254A136843F002
:100A18008003136001F074FE0546214B1B6813F434
:100A2800807F40F0888001F06BFE401B0228F4D9DB
:100A3800032027E201F06AFE41F20303984212D82C
:100A48002269402A07D016494B6823F47C3343EACD
:100A580002334B60C7E7124A536823F47C3343F4EC
:100A680000335360BFE70E4A536823F0FE43216901
:100A780043EA01635360B6E7094A136823F00103A8
:100A8800136001F03DFE0546054B1B6813F0040F8B
:100A9800A9D001F035FE401B0228F5D90320F1E169
:100AA8000044025802F00302012AAAD1A14B1B6894
:100AB80013F4807F03D0E369802B40F0E08101F0DC
:100AC80025FE41F20303984212D8226A202A07D051
:100AD80098494B6823F0F84343EA82634B600FE080
:100AE800944A536823F0F84343F08043536007E087
:100AF800904AD36823F07C53216A43EA0163D360A8
:100B0800236813F0080F60D06369002B49D0894A25
:100B1800536F43F00103536701F0F2FD0546854B1F
:100B28005B6F13F0020F50D101F0EAFD401B022861
:100B3800F5D90320A6E101F0E9FD41F2030398424B
:100B480012D8226A202A07D07A494B6823F0F84342
:100B580043EA82634B60D3E7764A536823F0F8434D
:100B680043F080435360CBE7724AD36823F07C5349
:100B7800216A43EA0163D360C2E76E4A136823F02F
:100B88008003136001F0BCFD05466A4B1B6813F433
:100B9800807FB5D001F0B4FD401B0228F5D90320B1
:100BA80070E1644A536F23F00103536701F0A8FD15
:100BB8000546604B5B6F13F0020F06D001F0A0FDF5
:100BC800401B0228F5D903205CE1236813F0200FAD
:100BD80029D0A3699BB1574A136843F48053136023
:100BE80001F08EFD0546534B1B6813F4005F1AD1C4
:100BF80001F086FD401B0228F5D9032042E14D4A49
:100C0800136823F48053136001F07AFD0546494BBD
:100C18001B6813F4005F06D001F072FD401B022828
:100C2800F5D903202EE1236813F0040F21D1636A5C
:100C3800002B00F026813F4A126902F03802182A78
:100C480000F0EE80022B79D03A4A136823F08073C3
:100C5800136001F055FD0446364B1B6813F0007F06
:100C680000F0DC8001F04CFD001B0228F4D90320C1
:100C780008E1314A136843F48073136001F040FDC2
:100C880005462D4B1B6813F4807F06D101F038FD13
:100C9800401B6428F5D90320F4E0A368012B0AD08F
:100CA8000BBB244B1A6F22F001021A671A6F22F04D
:100CB80004021A6704E01F4A136F43F00103136725
:100CC800A36833B301F01CFD05461A4B1B6F13F0E4
:100CD800020FACD101F014FD401B41F28833984259
:100CE800F3D90320CEE0052B09D0124B1A6F22F05E
:100CF80001021A671A6F22F004021A67E0E70D4B27
:100D08001A6F42F004021A671A6F42F001021A675A
:100D1800D6E701F0F5FC0546064B1B6F13F0020FF2
:100D280085D001F0EDFC401B41F288339842F3D99D
:100D38000320A7E00044025800480258594A1368A3
:100D480023F08073136001F0DBFC0546554B1B68EC
:100D580013F0007F06D001F0D3FC401B0228F5D920
:100D680003208FE04F4B996A4F4A0A40A16AE06A14
:100D780041EA00110A439A62226B013AC2F308025F
:100D8800616B0139490289B20A43A16B013909042F
:100D980001F4FE010A43E16B0139090601F0FE4145
:100DA8000A431A63DA6A22F00102DA62596B3F4A8F
:100DB8000A40A16C42EAC1025A63DA6A22F00C02C4
:100DC800216C0A43DA62DA6A22F00202616C0A4391
:100DD800DA62DA6A42F48032DA62DA6A42F40032BB
:100DE800DA62DA6A42F48022DA62DA6A42F00102EE
:100DF800DA621A6842F080721A6001F081FC0446D7
:100E0800284B1B6813F0007F06D101F079FC001B0A
:100E18000228F5D9032035E0002033E0002031E036
:100E2800204A916A106B012B2DD001F00303A26AAE
:100E380093422AD1C1F30511E36A994227D1C0F33D
:100E48000802236B013B9A4223D1C0F34622636B0D
:100E5800013B9A421FD1C0F30642A36B013B9A4261
:100E68001BD1C0F30660E36B013B984217D1002009
:100E780008E001207047012004E0012002E0012081
:100E880000E0002038BD0120FCE70120FAE701203E
:100E9800F8E70120F6E70120F4E70120F2E7012056
:100EA800F0E700BF004402580CFCFFFF0700FFFFFB
:100EB800744B1B6903F03803102B00F0DE80182BED
:100EC8000FD00BB1704870476E4B1B6813F0200FA2
:100ED80000F0D5806B4B1B68C3F3C1036B48D84047
:100EE800704710B4674B9A6A02F003029C6AC4F315
:100EF8000510D96A01F001015B6BC3F3CC0301FB58
:100F080003F307EE903AF8EE677A14F47C7F00F06A
:100F18009480012A66D0022A00F09280E2B107EE9E
:100F2800100AF8EE476A9FED5A6A86EE267A554B04
:100F38001B6BC3F3080306EE903AF8EE666A9FED62
:100F4800556A67EE867A76EEA77AF7EE006A77EE4C
:100F5800A67A27EE277A61E04A4B1B6813F0200F28
:100F680023D048490A68C2F3C102484BD34007EE70
:100F7800103AF8EE476A07EE100AB8EE476A86EEAE
:100F8800867A0B6BC3F3080306EE903AF8EE666AAE
:100F98009FED406A67EE867A76EEA77AF7EE006AEA
:100FA80077EEA67A27EE277A38E007EE100AF8EEF1
:100FB800476A9FED396A86EE267A324B1B6BC3F37C
:100FC800080306EE903AF8EE666A9FED326A67EE1D
:100FD800867A76EEA77AF7EE006A77EEA67A27EE9B
:100FE800277A1BE007EE100AF8EE476A9FED286A99
:100FF80086EE267A234B1B6BC3F3080306EE903A62
:10100800F8EE666A9FED236A67EE867A76EEA77A2F
:10101800F7EE006A77EEA67A27EE277A194B1B6B54
:10102800C3F34623013307EE903AF8EE677AC7EE2A
:10103800276AFCEEE67A17EE900A5DF8044B7047D3
:1010480007EE100AF8EE476A9FED146A86EE267AD4
:101058000C4B1B6BC3F3080306EE903AF8EE666A76
:101068009FED0C6A67EE867A76EEA77AF7EE006A4D
:1010780077EEA67A27EE277AD0E709487047034823
:10108800704700BF0044025800093D000090D0039B
:101098000024744A000000390024744C001BB74B2C
:1010A80000366E01002800F0328170B50D46044606
:1010B8009B4B1B6803F00F038B420BD2984A1368B3
:1010C80023F00F030B431360136803F00F038B42E5
:1010D80040F01F81236813F0040F0CD02269914B54
:1010E8009B6903F070039A4205D98E498B6923F0F6
:1010F80070031A438A61236813F0080F0CD06269E1
:10110800884BDB6903F070039A4205D98549CB699E
:1011180023F070031A43CA61236813F0100F0CD030
:10112800A269804BDB6903F4E0639A4205D97D49E3
:10113800CB6923F4E0631A43CA61236813F0200FD4
:101148000CD0E269774B1B6A03F070039A4205D909
:1011580074490B6A23F070031A430A62236813F078
:10116800020F0CD0E2686F4B9B6903F00F039A42A1
:1011780005D96C498B6923F00F031A438A612368E8
:1011880013F0010F41D0674A936923F47063A16893
:101198000B4393616368022B0AD0032B27D0012BE2
:1011A8002CD0604A126812F0040F06D10120ADE07D
:1011B800126812F4003F00F0AE805A490A6922F022
:1011C800070213430B6101F09BFA0646554B1B6956
:1011D80003F038036268B3EBC20F16D001F090FA3F
:1011E800801B41F288339842F0D903208EE04D4AA3
:1011F800126812F0007FE0D1012087E0494A1268A6
:1012080012F4807FD9D1012080E0236813F0020F07
:101218000CD0E268434B9B6903F00F039A4205D256
:1012280040498B6923F00F031A438A613C4B1B68C2
:1012380003F00F03AB420AD9394A136823F00F03AE
:101248002B431360136803F00F03AB4265D1236887
:1012580013F0040F0CD02269324B9B6903F0700322
:101268009A4205D22F498B6923F070031A438A6189
:10127800236813F0080F0CD062692A4BDB6903F06E
:1012880070039A4205D22749CB6923F070031A43A9
:10129800CA61236813F0100F0CD0A269214BDB69D7
:1012A80003F4E0639A4205D21E49CB6923F4E06354
:1012B8001A43CA61236813F0200F0CD0E269194B56
:1012C8001B6A03F070039A4205D216490B6A23F091
:1012D80070031A430A62FFF7EBFD12498B69C3F3E7
:1012E8000323114AD35C03F01F03D8408B6903F032
:1012F8000F03D35C03F01F0320FA03F30B4A1360B8
:101308000B4B18600B4B186801F098F970BD012061
:1013180070470120FAE70120F8E70120F6E700BF4F
:1013280000200052004402584436000804000020FF
:10133800080000201000002008B5FFF7B9FD0B4A8F
:101348009369C3F303230A49CB5C03F01F0320FA14
:1013580003F3926902F00F02885C00F01F0023FA81
:1013680000F0044A1060044A136008BD00440258A3
:1013780044360008040000200800002008B5FFF7E4
:10138800DBFF054BDB69C3F30213044AD35C03F0AC
:101398001F03D84008BD00BF004402584436000867
:1013A80008B5FFF7C9FF054BDB69C3F30223044AFD
:1013B800D35C03F01F03D84008BD00BF00440258A7
:1013C80044360008404B9B6A03F00303032B79D093
:1013D80070B505460E463C4A136823F080631360D7
:1013E80001F08EF90446384B1B6813F0006F06D0E5
:1013F80001F086F9031B022BF5D9032070BD324B8F
:101408009A6A22F47C32296842EA01329A626A684E
:10141800013AC2F30802A9680139490289B20A43AC
:10142800E9680139090401F4FE010A43296901390F
:10143800090601F0FE410A439A63DA6A22F0C00203
:1014480069690A43DA62DA6A22F02002A9690A4362
:10145800DA62DA6A22F01002DA62D96B1B4A0A40B1
:10146800E96942EAC102DA63DA6A42F01002DA6232
:10147800C6B91A46DB6A43F40023D362124A1368DA
:1014880043F08063136001F03BF904460E4B1B6880
:1014980013F0006F14D101F033F9001B0228F5D9BD
:1014A8000320ABE7012E05D0074AD36A43F40013A3
:1014B800D362E3E7044AD36A43F48013D362DDE7D7
:1014C80000209BE701207047004402580700FFFFF7
:1014D800404B9B6A03F00303032B79D070B5054694
:1014E8000E463C4A136823F08053136001F008F954
:1014F8000446384B1B6813F0005F06D001F000F972
:10150800031B022BF5D9032070BD324B9A6A22F0D7
:101518007C72296842EA01529A626A68013AC2F307
:101528000802A9680139490289B20A43E968013900
:10153800090401F4FE010A4329690139090601F089
:10154800FE410A431A64DA6A22F4406269690A436E
:10155800DA62DA6A22F40072A9690A43DA62DA6A9C
:1015680022F48072DA62596C1B4A0A40E96942EA3D
:10157800C1025A64DA6A42F48072DA62C6B91A465B
:10158800DB6A43F48003D362124A136843F0805342
:10159800136001F0B5F804460E4B1B6813F0005FAA
:1015A80014D101F0ADF8001B0228F5D90320ABE7F0
:1015B800012E05D0074AD36A43F08073D362E3E76C
:1015C800044AD36A43F40003D362DDE700209BE7B3
:1015D80001207047004402580700FFFFF8B5044691
:1015E800036813F0006F30D0436EB3F5001F26D0A8
:1015F8000ED8EBB1B3F5801F07D102210430FFF7F5
:10160800E1FE054645B12E4621E0012635461EE09D
:10161800B3F5401F09D10025954A136D23F44013F3
:10162800616E0B431365002611E0012635460EE076
:101638008F4AD36A43F40033D3620025ECE70221D2
:101648002430FFF745FF0546DCE7002635462368CA
:1016580013F4807F14D0636D042B30D8DFE803F0D7
:10166800032228080800824AD36A43F40033D3626D
:1016780045BB7F4A136D23F00703616D0B43136568
:10168800236813F4007F2FD0A36D802B49D01ED878
:10169800002B40D0402B17D10021201DFFF792FED0
:1016A800054619E00021201DFFF78CFE0546DFE7FF
:1016B800002104F12400FFF70BFF0546D8E70126B7
:1016C8003546DDE72E46DBE7012635460CE0C02B24
:1016D80002D0B3F5807F1BD155BB654A136D23F447
:1016E800E073A16D0B431365236813F4806F45D035
:1016F800D4F8A430B3F5800F38D01ED883B3B3F52F
:10170800001F17D10021201DFFF75CFE05461AE0D7
:1017180001263546E8E7564AD36A43F40033D362D4
:10172800DAE7002104F12400FFF7D2FE0546D3E7EB
:101738002E46D9E70126354620E0B3F5C00F02D082
:10174800B3F5000F09D1C5B9494A936D23F4600375
:10175800D4F8A4100B43936510E0012635460DE03C
:10176800434AD36A43F40033D362ECE7002104F11F
:101778002400FFF7ADFE0546E5E72E46236813F47F
:10178800006F23D0D4F8A830B3F1007F41D00DD832
:10179800002B38D0B3F1807F05D10021201DFFF741
:1017A80011FE054608E0012635460FE0B3F1407FFB
:1017B80002D0B3F1806F23D1002D31D12C4A936D23
:1017C80023F0E063D4F8A8100B439365236813F063
:1017D800007F2ED0A36C202B3FD026D833B1102BFE
:1017E80020D1234AD36A43F40033D362002D3AD17F
:1017F8001F4AD36C23F03003A16C0B43D36418E069
:1018080001263546E2E71A4AD36A43F40033D36225
:10181800D2E7002104F12400FFF75AFE0546CBE782
:101828002E46D3E70126354603E0302BDED00126CD
:101838003546236813F4805F2BD0E36DB3F5005F62
:101848004CD017D8002B43D0B3F5805F0DD10021C1
:10185800201DFFF7B7FD054612E00221201DFFF706
:10186800B1FD0546C2E72E46E3E70126354610E0FE
:1018780000440258B3F5405F02D0B3F5804F24D13D
:10188800002D32D1754A136D23F4E043E16D0B430B
:101898001365236813F4005F37D0236EB3F5003F58
:1018A80051D027D83BB1B3F5803F20D10121201D6D
:1018B800FFF788FD0546002D4CD1684A136D23F4C7
:1018C800E023216E0B4313651FE001263546E0E750
:1018D800624AD36A43F40033D362D1E7002104F1AA
:1018E8002400FFF7F5FD0546CAE72E46D1E7012695
:1018F80035460AE0B3F5802FDDD0B3F5A02FDAD056
:10190800B3F5403FD7D001263546236813F4804FFE
:1019180030D0D4F8AC30B3F1005F44D01FD83BB11D
:10192800B3F1805F18D10121201DFFF74BFD05465B
:10193800002D3FD1494A936D23F0E043D4F8AC1011
:101948000B43936516E0012104F12400FFF7C0FD65
:101958000546B0E72E46D8E7012635460AE0B3F13A
:10196800804FE5D0B3F1A04FE2D0B3F1405FDFD0B4
:1019780001263546236813F4004F09D0E36EB3F10E
:10198800805F19D0B3F1005F24D0D3B1012635466A
:10199800236813F0807F32D0636C032B59D8DFE8BB
:1019A80003F026215226012104F12400FFF790FDBF
:1019B8000546BDE72E46DDE7284AD36A43F40033DF
:1019C800D3626DB9254A136D23F04053E16E0B4382
:1019D8001365DDE70121201DFFF7F4FC0546F0E75C
:1019E8002E46D5E71D4AD36A43F40033D3629DBB24
:1019F8001A4AD36C23F00303616C0B43D364236846
:101A080013F4800F2CD1236813F0010F00F0A3808A
:101A1800A36F282B00F29D80DFE803F08B9B9B9B34
:101A28009B9B9B9B869B9B9B9B9B9B9B949B9B9B1A
:101A38009B9B9B9B8B9B9B9B9B9B9B9B8B9B9B9B0E
:101A48009B9B9B9B8B000221201DFFF7BBFC05463F
:101A5800CDE701263546D2E72E46D0E700440258A6
:101A68008F4A136843F48073136000F049FE0746F9
:101A78008B4B1B6813F4807F05D100F041FEC01B1F
:101A88006428F5D90325002D4AD1864B1B6FD4F85D
:101A9800B020534013F4407F0CD0824B1A6F22F4CD
:101AA8004072196F41F480311967196F21F4803140
:101AB80019671A67D4F8B030B3F5807F15D08DBB9D
:101AC800D4F8B03003F44072B2F5407F1ED0754AA6
:101AD800136923F47C53136172490B6FD4F8B02057
:101AE800C2F30B0213430B678DE700F009FE0746AC
:101AF8006C4B1B6F13F0020FE1D100F001FEC01B0D
:101B080041F288339842F3D90325D8E7654802693A
:101B180022F47C52644901EA131313430361DBE79F
:101B28002E4670E72E466EE70121201DFFF74AFC7E
:101B38000546E5B95B4A536D23F03803A16F0B43A3
:101B4800536508E0012104F12400FFF7C1FC0546B4
:101B5800EFE701263546236813F0020F16D0636FAE
:101B6800052B27D8DFE803F00A051F0A0A0A2E46C4
:101B7800F1E70121201DFFF725FC0546EDB9494A8B
:101B8800536D23F00703616F0B435365236813F00C
:101B9800040F22D0D4F89030052B43D8DFE803F0A7
:101BA800140F3B141414012104F12400FFF790FCD6
:101BB8000546E3E701263546E8E72E46E6E7012134
:101BC800201DFFF7FFFB05467DBB364A936D23F0CA
:101BD8000703D4F890100B439365236813F0200F84
:101BE80033D0D4F88C30B3F1005F4CD022D83BB15D
:101BF800B3F1805F1BD10021201DFFF7E3FB0546F1
:101C0800002D47D1274A536D23F0E043D4F88C10B8
:101C18000B43536519E0012104F12400FFF758FC38
:101C28000546D1E701263546D7E72E46D5E70126F2
:101C380035460AE0B3F1804FE2D0B3F1A04FDFD0D0
:101C4800B3F1405FDCD001263546236813F0400F1E
:101C580037D0D4F89830B3F5006F52D026D83BB1BE
:101C6800B3F5806F18D10021201DFFF7ABFB0546A7
:101C7800002D4DD10B4A936D23F4E053D4F89810FE
:101C88000B4393651DE0022104F12400FFF720FCBB
:101C98000546B5E72E46D8E70126354611E000BFD0
:101CA8000048025800440258CFFFFF00B3F5805F98
:101CB800DED0B3F5A05FDBD0B3F5406FD8D00126F6
:101CC8003546236813F0800F32D0D4F89C30B3F532
:101CD800804F00F09D8020D83BB1B3F5005F19D14B
:101CE8000021201DFFF76EFB0546002D40F0978070
:101CF800A54A936D23F46043D4F89C100B43936575
:101D080016E0022104F12400FFF7E2FB0546AFE7E5
:101D18002E46D6E7012635460AE0B3F5004FE4D053
:101D2800B3F5204FE1D0B3F5C04FDED001263546DC
:101D3800236813F0080F0CD0D4F88030B3F5805F17
:101D48006FD0914A536D23F44053D4F880100B435D
:101D58005365236813F0100F0CD0D4F89430B3F502
:101D6800807F67D0884A936D23F44073D4F8941029
:101D78000B439365236813F4002F0BD0D4F8A030DD
:101D8800B3F5803F6ED0B3F5003F61D0002B5AD039
:101D980001263546236813F4802F0CD0D4F88430FC
:101DA800B3F5001F76D0B3F5401F69D0B3F5801F97
:101DB80061D001263546236813F4803F07D0E36CD1
:101DC800002B70D0B3F5803F7BD0012635462368C1
:101DD80013F0005F7DD1236813F4003F00F0868084
:101DE800E36FB3F5807F00F0C6807CD9B3F5007F40
:101DF80003D0B3F5407F40F0BC80002D40F0C18097
:101E0800614A536D23F44073E16F0B4353656DE0F2
:101E1800022104F12400FFF75BFB054665E72E4627
:101E280086E7022104F12400FFF752FB002888D03E
:101E3800012686E7022104F12400FFF749FB002868
:101E480090D001268EE70021201DFFF7BBFA05463A
:101E58007DB94D4A936D23F44033D4F8A0100B4359
:101E6800936597E7022104F12400FFF731FB05464B
:101E7800EEE72E468EE7444AD36A43F40033D36232
:101E88007DB9414A536D23F44013D4F884100B43B1
:101E9800536590E7012104F12400FFF719FB05467B
:101EA800EEE72E4687E7384AD36A43F40033D36215
:101EB8006DB9354AD36C23F48033E16C0B43D3649A
:101EC80085E70221201DFFF77DFA0546F0E72E463B
:101ED8007DE7022104F12400FFF7FAFA00283FF415
:101EE8007AAF012677E7002B87D00126236813F401
:101EF800801F06D0244A136D23F00043216F0B4343
:101F08001365236813F0805F07D01F4A136923F411
:101F18008043D4F8B4100B431361236813F4001FF3
:101F280006D0194A136D23F08073A16E0B43136515
:101F3800236813F0804F09D0134B1A6922F400422A
:101F48001A611A69D4F8B8100A431A612368002B79
:101F58001CDB236813F4000F07D00B4A536D23F4DE
:101F68004003D4F888100B43536506B10126304668
:101F7800F8BD0126BAE7044AD36A43F40033D362B2
:101F88003BE72E46B2E700BF00440258034AD36C31
:101F980023F04053216D0B43D364DAE70044025821
:101FA80008B5FFF7C9F9054B1B6AC3F30213044AC6
:101FB800D35C03F01F03D84008BD00BF004402589B
:101FC8004436000810B4784B9A6A9C6AC4F3053CFE
:101FD800D96AC1F30011DB6BC3F3CC0301FB03F334
:101FE80014F47C3F00F0DB8002F0030207EE903A25
:101FF800F8EE677A012A66D0022A00F0B380E2B1CF
:1020080007EE10CAF8EE476A9FED686A86EE267AF0
:10201800654B9B6BC3F3080306EE903AF8EE666ACD
:102028009FED636A67EE867A76EEA77AF7EE006A26
:1020380077EEA67A27EE277A61E05B4B1B6813F0F0
:10204800200F23D058490A68C2F3C102594BD34024
:1020580007EE103AF8EE476A07EE10CAB8EE476A7C
:1020680086EE867A8B6BC3F3080306EE903AF8EE99
:10207800666A9FED4F6A67EE867A76EEA77AF7EE84
:10208800006A77EEA67A27EE277A38E007EE10CABC
:10209800F8EE476A9FED486A86EE267A424B9B6BBC
:1020A800C3F3080306EE903AF8EE666A9FED406ABD
:1020B80067EE867A76EEA77AF7EE006A77EEA67A6A
:1020C80027EE277A1BE007EE10CAF8EE476A9FED65
:1020D800376A86EE267A344B9B6BC3F3080306EE09
:1020E800903AF8EE666A9FED326A67EE867A76EE87
:1020F800A77AF7EE006A77EEA67A27EE277A2A4AB9
:10210800936BC3F3462307EE903AF8EE677AF7EE3F
:10211800006A77EEA67A87EE276ABCEEC66A80ED7B
:10212800006A936BC3F3064307EE903AF8EE677ABA
:1021380077EEA67A87EE276ABCEEC66A80ED016A5A
:10214800936BC3F3066307EE903AF8EE677A77EE7F
:10215800A67AC7EE276AFCEEE66AC0ED026A5DF869
:10216800044B704707EE10CAF8EE476A9FED136AF2
:1021780086EE267A0C4B9B6BC3F3080306EE903A67
:10218800F8EE666A9FED0A6A67EE867A76EEA77AB7
:10219800F7EE006A77EEA67A27EE277AAFE70023F4
:1021A800036043608360DAE7004402580024744AFD
:1021B800000000390090D0030024744C001BB74B7A
:1021C80010B4784B9A6A9C6AC4F3055CD96AC1F367
:1021D80000215B6CC3F3CC0301FB03F314F07C7F99
:1021E80000F0DB8002F0030207EE903AF8EE677A1F
:1021F800012A66D0022A00F0B380E2B107EE10CAC5
:10220800F8EE476A9FED686A86EE267A654B1B6C86
:10221800C3F3080306EE903AF8EE666A9FED636A28
:1022280067EE867A76EEA77AF7EE006A77EEA67AF8
:1022380027EE277A61E05B4B1B6813F0200F23D051
:1022480058490A68C2F3C102594BD34007EE103A05
:10225800F8EE476A07EE10CAB8EE476A86EE867A45
:102268000B6CC3F3080306EE903AF8EE666A9FED2E
:102278004F6A67EE867A76EEA77AF7EE006A77EE0F
:10228800A67A27EE277A38E007EE10CAF8EE476AF2
:102298009FED486A86EE267A424B1B6CC3F308030F
:1022A80006EE903AF8EE666A9FED406A67EE867A27
:1022B80076EEA77AF7EE006A77EEA67A27EE277A07
:1022C8001BE007EE10CAF8EE476A9FED376A86EE04
:1022D800267A344B1B6CC3F3080306EE903AF8EEEB
:1022E800666A9FED326A67EE867A76EEA77AF7EE2F
:1022F800006A77EEA67A27EE277A2A4A136CC3F388
:10230800462307EE903AF8EE677AF7EE006A77EE22
:10231800A67A87EE276ABCEEC66A80ED006A136C5F
:10232800C3F3064307EE903AF8EE677A77EEA67A9B
:1023380087EE276ABCEEC66A80ED016A136CC3F3A8
:10234800066307EE903AF8EE677A77EEA67AC7EE5C
:10235800276AFCEEE66AC0ED026A5DF8044B704736
:1023680007EE10CAF8EE476A9FED136A86EE267AE2
:102378000C4B1B6CC3F3080306EE903AF8EE666A42
:102388009FED0A6A67EE867A76EEA77AF7EE006A1C
:1023980077EEA67A27EE277AAFE70023036043603B
:1023A8008360DAE7004402580024744A00000039C8
:1023B8000090D0030024744C001BB74BF0B583B0D9
:1023C80000236BE085685E000324B44025EA040519
:1023D800CC68B4402C438460456825EA0C054C68F9
:1023E800C4F300149C402C43446069E0DD080835C0
:1023F80050F8254003F0070C4FEA8C0C4FF00F0EF5
:102408000EFA0CFE24EA0E0E0C6904FA0CF444EAE7
:102418000E0440F825406BE0092400E0002404FA8B
:102428000EF42C430CF1020C694D45F82C404FF08A
:10243800B0442568D44325EA02064F6817F4801F84
:1024480001D042EA05064FF0B0452E606D6804EAF7
:1024580005064F6817F4001F01D042EA05064FF041
:10246800B0456E60D5F8845004EA05064F6817F445
:10247800003F01D042EA05064FF0B045C5F8846038
:10248800D5F880502C404E6816F4803F01D042EABF
:1024980005044FF0B042C2F8804001330A6832FAAE
:1024A80003F400F092804FF0010C0CFA03FC1CEAD4
:1024B8000202F2D04C6804F00304013C012C81D9DB
:1024C8004C6804F00304032C0CD0C4685D004FF082
:1024D800030C0CFA05FC24EA0C0C8C68AC4044EAAA
:1024E8000C04C4604C6804F00304022C3FF47EAF73
:1024F80004684FEA430E4FF0030C0CFA0EFC24EA72
:102508000C0C4C6804F0030404FA0EF444EA0C04BE
:1025180004604C6814F4403FBFD02E4CD4F8F450FB
:1025280045F00205C4F8F450D4F8F44004F002046D
:102538000194019C4FEA930C0CF10205244C54F8C9
:10254800255003F0030E4FEA8E0E0F2404FA0EF402
:1025580025EA0405204CA0423FF460AF04F58064EE
:10256800A04222D004F58064A04220D004F5806403
:10257800A0421ED004F58064A0421CD004F58064FB
:10258800A0421AD004F58064A04218D004F58064F3
:10259800A04216D004F58064A04214D004F58064EB
:1025A800A0423FF439AF0A2439E7012437E702246F
:1025B80035E7032433E7042431E705242FE706240D
:1025C8002DE707242BE7082429E703B0F0BD00BF57
:1025D8000004005800440258000002580AB1816102
:1025E8007047090481617047134BDB6813F0040FCF
:1025F80007D1114BDB6803F0070383421AD001208F
:10260800704710B50C4AD36823F007030343D3601F
:1026180000F076F80446084B5B6813F4005F07D1B6
:1026280000F06EF8001BB0F57A7FF4D9012000E0C5
:10263800002010BD0020704700480258104B1B783E
:102648000BB90120704710B504464FF47A70B0FBFF
:10265800F3F30C4A1068B0FBF3F0FEF7DBF868B947
:102668000F2C01D901200AE0002221464FF0FF304B
:10267800FEF7C0F8044B1C60002000E0012010BDEC
:102688000C000020080000201000002010B50320D6
:10269800FEF79EF8FEF70CFC0F498B69C3F3032382
:1026A8000E4AD35C03F01F03D8408B6903F00F0375
:1026B800D35C03F01F0320FA03F3094A1360094BA4
:1026C80018600F20FFF7BAFF10B10124204610BD93
:1026D8000446FDF753FFF9E7004402584436000862
:1026E8000400002008000020034B1B78034A1168EF
:1026F8000B441360704700BF0C00002050010020FD
:10270800014B1868704700BF50010020014B186842
:10271800000C70470010005C70B586B00446016874
:1027280083680269134342691343C2691343086803
:10273800884A02401A430A602268536823F44053C7
:10274800E1680B435360A1692268834B9A4201D028
:10275800236A19439068814B03400B4393602268B6
:10276800D36A23F00F03616A0B43D36222687C4B60
:102778009A4221D07B4B9A4200F08C807A4B9A4245
:1027880000F0A280794B9A4200F0B580784B9A42CB
:1027980000F0C880774B9A4200F0F480764B9A425A
:1027A80000F01981754B9A4200F02C816A4B9A42CD
:1027B80000F03F81802333E0714B5B6D03F03803F9
:1027C800282B65D8DFE813F0290064006400640052
:1027D80064006400640064004D01640064006400E7
:1027E80064006400640064002B00640064006400FA
:1027F80064006400640064005E00640064006400B7
:1028080064006400640064006000640064006400A4
:1028180064006400640064006200012300E008238F
:102828004D498A4200F02F81E069B0F5004F00F071
:10283800AF81202B00F20782202B00F25182DFE8C3
:1028480013F01E0224024F024F0227024F024F02CA
:102858004F022C024F024F024F024F024F024F020B
:102868004F0231024F024F024F024F024F024F02F6
:102878004F024F024F024F024F024F024F024F02C8
:102888004F023D021023CBE72023C9E74023C7E7C7
:102898008023C5E73A4B5B6D03F00703052B11D87E
:1028A800DFE813F00600E10008000A000C000E0043
:1028B8000023B5E70823B3E71023B1E72023AFE7E8
:1028C8004023ADE78023ABE72D4B5B6D03F0070397
:1028D800052B0ED8DFE803F003C90507090B002311
:1028E8009EE708239CE710239AE7202398E74023D4
:1028F80096E7802394E7224B5B6D03F00703052BD3
:102908000ED8DFE803F003B40507090B002387E7B7
:10291800082385E7102383E7202381E740237FE707
:1029280080237DE7164B5B6D03F00703052B0ED85C
:10293800DFE803F0039F0507090B002370E708236E
:102948006EE710236CE720236AE7402368E78023BB
:1029580066E700BFF369FFCF000C0058FFF4FF11D2
:10296800001001400044004000480040004C004076
:10297800005000400014014000780040007C0040F6
:10298800004402587D4B5B6D03F03803282B20D898
:10299800DFE803F0151F1F1F1F1F1F1F711F1F1FB9
:1029A8001F1F1F1F171F1F1F1F1F1F1F191F1F1F3D
:1029B8001F1F1F1F1B1F1F1F1F1F1F1F1D0001235E
:1029C8002EE708232CE710232AE7202328E74023B3
:1029D80026E7802324E7694B5B6D03F00703052B8B
:1029E8000ED8DFE803F0034A0507090B002317E7B1
:1029F800082315E7102313E7202311E740230FE7E7
:102A080080230DE75D4B5B6D03F00703052B0ED8A4
:102A1800DFE803F003350507090B002300E7082367
:102A2800FEE61023FCE62023FAE64023F8E680239E
:102A3800F6E603F50E339B6D03F00703052B0ED85E
:102A4800DFE803F0031F0507090B0223E8E6082364
:102A5800E6E61023E4E62023E2E64023E0E68023CE
:102A6800DEE60423DCE60423DAE60423D8E60423BE
:102A7800D6E60423D4E60423D2E60423D0E60423CE
:102A8800CEE60423CCE6202B27D8022BC0F01A81EF
:102A9800023B1E2B00F21881DFE813F050001601EC
:102AA80056001601160116015B00160116011601E3
:102AB800160116011601160160001601160116010D
:102AC8001601160116011601160116011601160146
:102AD80016011601160116016C00402B2CD14FF47B
:102AE8000040626A264B33F81220B0FBF2F36568A7
:102AF80005EB4501994200F2E980B3EB053F00F28E
:102B0800E780002633463146FDF7C2FB090241EA59
:102B1800106100026B08C0182A46334641F10001D3
:102B2800FDF7B6FBA0F54072164B9A4200F2D28030
:102B38002368D8603046D4E00120D2E0FFF730FAAD
:102B48000028CED10020CCE003A8FFF73BFA049878
:102B5800F6E76846FFF734FB0198F1E7074B1B6877
:102B680013F0200F08D0054B1B68C3F3C1030648B8
:102B7800D840B6E70548B4E70348B2E7004402582E
:102B880054360008FFFC0F000090D00300093D00F8
:102B9800202B15D8202B00F29F80DFE803F0313777
:102BA8009D9D3A9D9D9D3F9D9D9D9D9D9D9D449D67
:102BB8009D9D9D9D9D9D9D9D9D9D9D9D9D9D500027
:102BC800402B1BD1626A4D4B33F81230B0FBF3F047
:102BD8006268530803EB4003B3FBF2F3A3F110015F
:102BE8004FF6EF72914279D89AB222F00F02C3F3EE
:102BF800420313432268D360002072E0012070E092
:102C0800FEF7BCFB0028DDD100206AE0FEF7C8FB18
:102C1800F8E703A8FFF7D6F90498F3E76846FFF743
:102C2800CFFA0198EEE7364B1B6813F0200F08D057
:102C3800334B1B68C3F3C1033248D840C2E732485C
:102C4800C0E73048BEE7402B17D14FF40040626A16
:102C58002A4B33F81230B0FBF3F0636800EB5300F3
:102C6800B0FBF3F0A0F110024FF6EF739A4242D88E
:102C7800236880B2D860002033E0012031E0FEF7FD
:102C88007DFB0028E3D100202BE0FEF789FBF8E765
:102C980003A8FFF797F90498F3E76846FFF790FA57
:102CA8000198EEE7164B1B6813F0200F08D0144B61
:102CB8001B68C3F3C1031348D840C8E71248C6E7E6
:102CC8001048C4E701200CE001200AE0012008E0D8
:102CD800012006E0012004E0012002E0012000E0DC
:102CE80001200123A4F86A30A4F868300023236780
:102CF800636706B070BD0120F3E700BF54360008D3
:102D0800004402580090D00300093D00836A13F084
:102D1800010F06D00268536823F40033C16A0B43DD
:102D28005360836A13F0020F06D00268536823F4D5
:102D38008033016B0B435360836A13F0040F06D092
:102D48000268536823F48023416B0B435360836A02
:102D580013F0080F06D00268536823F40043816B10
:102D68000B435360836A13F0100F06D00268936810
:102D780023F48053C16B0B439360836A13F0200FD5
:102D880006D00268936823F40053016C0B439360E8
:102D9800836A13F0400F0AD00268536823F4801343
:102DA800416C0B435360436CB3F5801F0BD0836AAF
:102DB80013F0800F06D00268536823F40023C16C17
:102DC8000B43536070470268536823F4C003816C57
:102DD8000B435360EBE72DE9F84305460F461646CB
:102DE8009946DDF820802B68DC6937EA04040CBFBB
:102DF80001240024B44257D1B8F1FF3FF3D0FFF7C4
:102E08007FFCA0EB090040452FD8B8F1000F2CD06B
:102E18002B681A6812F0040FE5D0DA6912F4006F13
:102E2800E1D04FF400621A622A6852E8003F23F4A6
:102E3800D07342E800310029F6D12A6802F108036C
:102E480053E8003F23F00103083242E8003100292B
:102E5800F3D12023C5F88430C5F88830C5F88C3004
:102E6800002385F8803003201FE02A6852E8003FDD
:102E780023F4D07342E800310029F6D12A6802F120
:102E8800080353E8003F23F00103083242E8003109
:102E98000029F3D12023C5F88430C5F888300023F1
:102EA80085F88030032000E00020BDE8F8832DE994
:102EB800F04182B01E46D0F88430202B58D1044609
:102EC8000D469046002A18BF002955D090F880304A
:102ED800012B53D0012380F880300023C0F88C30B8
:102EE8002123C0F88430FFF70BFC0746A4F8548070
:102EF800A4F85680A368B3F5805F05D04FF00008AA
:102F0800002384F8803012E0236913B14FF00008E1
:102F1800F6E7A8460025F3E715F8012B23689A621F
:102F2800B4F8562092B2013A92B2A4F85620B4F8F6
:102F380056309BB283B100963B4600228021204642
:102F4800FFF749FFE0B9002DE6D138F8023B2268C7
:102F5800C3F308039362E3E700963B46002240214F
:102F68002046FFF738FF68B92023C4F8843000E012
:102F7800022002B0BDE8F0810120FAE70220F8E75C
:102F88000320F6E70320F4E72DE9F04383B01E465B
:102F9800D0F88830202B40F0818004460D469046BA
:102FA800002A18BF00297DD090F88030012B7BD0F3
:102FB800012380F880300023C0F88C302222C0F82A
:102FC8008820C366FFF79CFB0746A4F85C80A4F83A
:102FD8005E80A368B3F5805F06D0A3B9226972B991
:102FE800FF22A4F8602014E0226922B940F2FF12FF
:102FF800A4F860200DE0FF22A4F8602009E07F22F9
:10300800A4F8602005E0B3F1805F0DD00022A4F899
:103018006020B4F86080B3F5805F0FD04FF00009EE
:10302800002384F880301EE022691AB97F22A4F8B0
:103038006020EEE73F22A4F86020EAE7236913B195
:103048004FF00009ECE7A9460025E9E723685B6A29
:1030580008EA030329F8023BB4F85E2092B2013A69
:1030680092B2A4F85E20B4F85E309BB28BB10096A1
:103078003B46002220212046FFF7ADFEB0B9002DC7
:10308800E4D023685A6A5FFA88F3134005F8013BD5
:10309800E2E72023C4F88830002000E0022003B0D3
:1030A800BDE8F0830120FAE70220F8E70320F6E7FD
:1030B80030B583B004460023C0F88C30FFF720FBFE
:1030C80005462268126812F0080F0FD123681B68A2
:1030D80013F0040F18D12023C4F88430C4F88830C2
:1030E8000020E06684F8800003B030BD6FF07E43B6
:1030F8000093034600224FF400112046FFF76BFEB1
:103108000028E3D00320EFE76FF07E4300932B46BF
:1031180000224FF480012046FFF75DFE0028DAD038
:103128000320E1E778B310B50446D0F884300BB338
:103138002423C4F884302268136823F00103136041
:103148002046FFF7E9FA012813D0A36ABBB9226821
:10315800536823F4904353602268936823F02A034A
:1031680093602268136843F0010313602046FFF759
:103178009FFF10BD80F88030FDF712FAD8E720468F
:10318800FFF7C4FDE3E7012070470000436E2BB949
:103198000123A0F86A30A0F86830704730B403689B
:1031A8009A68C2F342629968490F094D6B5C1B012A
:1031B800084C615C93FBF1F3A0F86A30AB5C1B012F
:1031C800A25C93FBF2F3A0F8683030BC704700BFF4
:1031D800743600086C36000890F88030012B18D03F
:1031E800012380F880302423C0F8843003681A68EB
:1031F800196821F00101196022F00052002343668A
:1032080001680A602022C0F8842080F880301846BF
:1032180070470220704738B590F88030012B1DD0D8
:103228000446012380F880302423C0F884300368E2
:103238001D681A6822F001021A600268936823F078
:10324800604319439160FFF7A1FF23681D602023A5
:10325800C4F88430002084F8800038BD0220FCE7E0
:1032680038B590F88030012B1DD00446012380F832
:1032780080302423C0F8843003681D681A6822F05F
:1032880001021A600268936823F060631943916031
:10329800FFF77CFF23681D602023C4F884300020DA
:1032A80084F8800038BD0220FCE7000008B513460A
:1032B8008AB201460148FFF7FAFD08BD3000002038
:1032C80008B5014601231A460248FFF75DFE00B122
:1032D800012008BDC0000020DFF834D0FDF7E0F978
:1032E8000C480D490D4A002302E0D458C450043359
:1032F800C4188C42F9D30A4A0A4C002301E013602F
:103308000432A242FBD300F019F8FDF703F9704725
:103318000000022000000020140000208C36000865
:103328001400002054010020FEE7024403469342A3
:1033380000D1704703F8011BF9E7000070B50D4D87
:103348000D4C641BA4100026A64209D10B4D0C4C51
:1033580000F068F9641BA4100026A64205D170BDD0
:1033680055F8043B98470136EEE755F8043B984773
:103378000136F2E7843600088436000884360008EF
:10338800883600082DE9F04786468C460846089E90
:10339800154674461946002B40F0C2808542B2FAA1
:1033A80082F245D94AB1C2F1200300FA02FC2EFA92
:1033B80003F3954043EA0C0C94404FEA154EA8B22B
:1033C800BCFBFEF8230C0EFB18CC08FB00F943EA03
:1033D8000C43994528D9EB1808F1FF3704D29945D1
:1033E80002D9A8F102072B44A3EB0903A4B2B3FB4B
:1033F800FEFC0EFB1C330CFB00F044EA0344A04225
:1034080014D92C190CF1FF3304D2A04202D9ACF123
:1034180002032C44241A43EA07401EB1D440002377
:1034280034607360BDE8F0874746DDE76346F1E73F
:1034380092BB431B01214FEA154EAFB2B3FBFEFC12
:10344800200C0EFB1C330CFB07F840EA034398459D
:1034580062D9EB180CF1FF3004D2984502D9ACF1CF
:1034680002002B44A3EB0803A4B2B3FBFEFC0EFB43
:103478001C330CFB07F744EA0344A7424ED92C1926
:103488000CF1FF3304D2A74202D9ACF102032C4459
:10349800E41B43EA0040C0E7C2F1200320FA03F12D
:1034A800954090402EFA03F303434FEA154EAFB20E
:1034B800B1FBFEFC0EFB1C10190C0CFB07F841EAD3
:1034C8000041884504FA02F422D969180CF1FF304A
:1034D80004D2884502D9ACF102002944A1EB0801C5
:1034E8009BB2B1FBFEFC0EFB1C110CFB07F743EA79
:1034F80001439F420ED9EB180CF1FF3104D29F42D1
:1035080002D9ACF102012B44DB1B41EA004192E7EE
:103518006046E3E76146F7E76046A3E76346B7E737
:10352800834206D916B9002108467BE7C6E900E0C0
:10353800F9E7B3FA83F78FB9834201D3724508D804
:10354800BEEB020460EB030301209C461EB9002178
:1035580068E73846FAE7C6E9004CF8E7C7F1200CF7
:10356800BB4022FA0CF41C432EFA0CF120FA0CF39F
:10357800B84001434FEA14490EFA07F5B3FBF9F8CE
:103588001FFA84FE09FB18300B0C08FB0EFA43EAFD
:1035980000439A4502FA07F240D9E31808F1FF30D0
:1035A80004D29A4502D9A8F102002344A3EB0A03E6
:1035B80089B2B3FBF9F809FB183308FB0EFE41EAA0
:1035C80003418E452CD9611808F1FF3304D28E458A
:1035D80002D9A8F10203214443EA0040A0FB029863
:1035E800A1EB0E014145CE46434602D306D14D45D7
:1035F80004D2B9EB020E68EB04030138002EA6D002
:10360800B5EB0E0261EB030101FA0CFC22FA07F399
:103618004CEA0303F940C6E9003198E74046C5E79C
:103628004346D9E7F8B500BFF8BC08BC9E467047CA
:0C363800F8B500BFF8BC08BC9E46704707
:103644000000000001020304010203040607080944
:10365400010002000400060008000A000C0010002B
:103664002000400080000001080402040801010158
:08367400010101030701000040
:08367C0010FDFF7F01000000BA
:04368400F102000847
:04368800CD02000867
:10368C00010000000090D0030090D0030100000066
:04369C00100000001A
:04000005080032E1DC
:00000001FF
